S00C00004C6162322E73726563D7
S11300000C94A4000C94C5000C94C5000C94C50079
S11300100C94C5000C94C5000C94C5000C94C50048
S11300200C94C5000C94C5000C94C5000C94C50038
S11300300C94C5000C94C5000C94C5000C94C50028
S11300400C94C5000C94C5000C94C5000C94C50018
S11300500C94C5000C94C5000C94C5000C94C50008
S11300600C94C5000C94C5000C94C5000C94C500F8
S11300700C94C5000C94C5000C94C5000C94C500E8
S11300800C94C5000C94C5000C94C5000C944B044E
S11300900C94C5000C94C5000C94C5000C94C500C8
S11300A00C94C5000C94C5000C94C5000C94C500B8
S11300B00C94C5000C94C5000C94C5000C94C500A8
S11300C00C94C5000C94C5000C94C5000C94C50098
S11300D00C94C5000C94C5000C94C5000C94C50088
S11300E00C94C5000C94C5000C94C5000C94C50078
S11300F00C94C5000C94C5000C94C5000C94C50068
S11301000C94C5000C94C5000C94C5000C94C50057
S11301100C94C5000C94C5000C94C5000C94C50047
S11301200C94C5000C94C5000C94C5000C94C50037
S11301300C94C5000C94C5000C94C5000C94C50027
S11301400C94C5000C94060411241FBECFEFCDBF40
S1130150DFE3DEBF00E00CBF10E2A0E0B0E2E8EEB7
S1130160FBE000E00BBF02C007900D92A430B10782
S1130170D9F720E2A4E0B0E201C01D92A630B20794
S1130180E1F70E94FB010C94F2050C940000CF935C
S1130190DF9300D0CDB7DEB789839A836B838981DF
S11301A09A812B81FC01218300002396CDBFDEBF01
S11301B0DF91CF910895CF93DF9300D0CDB7DEB711
S11301C089839A836B8389819A812B81FC012283A1
S11301D000002396CDBFDEBFDF91CF910895CF936A
S11301E0DF9300D01F92CDB7DEB789839A836B83E8
S11301F04C8389819A812C81FC0125839B818C818C
S1130200292F282389819A81FC01268300002496C2
S1130210CDBFDEBFDF91CF910895CF93DF931F92BF
S11302201F92CDB7DEB789839A8389819A81FC01B5
S113023080850F900F90DF91CF9108950F93CF9306
S1130240DF9300D000D0CDB7DEB78C839D836E835F
S11302508FE390E0FC0180818B83F8948C819D81F5
S113026089839A838BE390E0FC01108289819A81CF
S11302702E81FC0108ED04BF20838FE390E02B81E5
S1130280FC01208300002696CDBFDEBFDF91CF9115
S11302900F910895CF93DF93CDB7DEB780E590E05B
S11302A020E530E0F90120812260FC01208380E513
S11302B090E0FC018181882F90E082709927892B3E
S11302C0B1F380E490E0FC018081887F8160682F35
S11302D080E490E00E941E0180E490E021E0FC01B3
S11302E023830000DF91CF910895CF93DF931F9272
S11302F01F92CDB7DEB78A838A81882F90E08295DA
S11303009295907F9827807F982789838A8180950A
S11303108295807F40EF682F80E296E00E94EF0094
S113032000000F900F90DF91CF910895CF93DF934A
S1130330CDB7DEB780E896E00E940D018F70DF91A3
S1130340CF910895CF93DF93CDB7DEB76FE080E808
S113035096E00E94DB0080EB90E02FE0FC0120831C
S113036080E896E020E836E0F90120892861FC0164
S1130370208B0000DF91CF910895CF93DF93CDB709
S1130380DEB760EF80E296E00E94C7000000DF91D4
S1130390CF910895CF93DF93CDB7DEB70E94A2012A
S11303A00E94BD010000DF91CF910895CF93DF93A8
S11303B01F921F92CDB7DEB789836A838981873004
S11303C0A0F480E09DE02981222F30E049E050E054
S11303D0BA01621B730B9B01220F220F2C7320683E
S11303E0FC0120878A810E94660300000F900F9011
S11303F0DF91CF910895CF93DF93CDB7DEB72F97D9
S1130400CDBFDEBF0E944A0167E082EA90E00E940D
S11304101E010E94CA010E94D4030E94F50378942D
S113042080E09DE02CE8FC01208785E50E946603BE
S113043089E40E9466038FE40E94660382E00E94BE
S1130440480381E090E00E94230380E090E8ABE35E
S1130450B5E48A839B83AC83BD8320E030E04AEF1C
S113046055E46A817B818C819D810E940805DC01B1
S1130470CB018E839F83A887B98720E030E040E8D2
S11304805FE36E817F81888599850E948204882339
S11304902CF481E090E08A879B873FC020E03FEF07
S11304A04FE757E46E817F81888599850E94030513
S11304B018164CF520E030E040E251E46A817B817B
S11304C08C819D810E940805DC01CB01BC01CD011A
S11304D00E948704DC01CB018A879B870FC080E2DE
S11304E093E08C879D878C859D850197F1F78C8798
S11304F09D878A859B8501978A879B878A859B85AB
S1130500892B69F714C06E817F81888599850E9443
S11305108704DC01CB018A879B878A859B858E872C
S11305209F878E859F850197F1F78E879F8780E04F
S113053090E00E94230366E486E00E94D601000056
S113054069E585E00E94D601000063E584E00E942D
S1130550D601000064E383E00E94D601000062E358
S113056082E00E94D601000064E381E00E94D6018B
S1130570000060E380E00E94D601000000006BE10F
S113058072E282E690E00E94760381E090E00E94AD
S11305902E040E949601898389810E9475018981B4
S11305A0882F90E0809590958F70992782309105DF
S11305B0A9F0833091051CF4019739F03CC08430D4
S11305C09105A1F10897A1F136C010920020109274
S11305D0012010920220109203202DC0809100204F
S11305E090910120A0910220B09103200197A109CC
S11305F0B1098093002090930120A0930220B0932E
S113060003208091002090910120A0910220B091BC
S113061003204597A105B10568F0109200201092BF
S11306200120109202201092032004C0000003C095
S1130630000001C0000000000E949601982F8981EB
S11306409817D1F3A6CFCF93DF931F921F92CDB704
S1130650DEB789839A8389819A81892B51F080E05E
S11306609DE020E03DE0F90125812860FC0125831F
S113067009C080E09DE020E03DE0F9012581277F6D
S1130680FC01258300000F900F90DF91CF91089516
S1130690CF93DF931F92CDB7DEB7898380E09DE0CF
S11306A020E03DE0F90125812C7FFC01258380E0D9
S11306B09DE020E03DE0F90135812981232BFC01F7
S11306C0258300000F90DF91CF910895CF93DF939E
S11306D01F92CDB7DEB7898380E09DE02981FC01BC
S11306E0218700000F90DF91CF910895CF93DF937E
S11306F0CDB7DEB72F97CDBFDEBF6C877D878E87E2
S11307009F878C859D85AE85BF8580389649A8498D
S1130710B1050CF042C00000AE014B5F5F4F8C8509
S11307209D85AE85BF852AE030E0BC01CD010E94E5
S1130730A605CE0105960E949D058B839C8386E0C9
S113074090E089839A8325C029813A818B819C8199
S1130750821793072CF4898160E00E94D60114C0AB
S11307602B813C8189819A81A901481B590BCA01BB
S113077001979E012B5F3F4F820F931FFC019081D5
S11307808981692F0E94D60189819A810197898381
S11307909A8389819A819923BCF600002F96CDBF54
S11307A0DEBFDF91CF910895CF93DF93CDB7DEB74E
S11307B080E09DE022E8FC01208380E09DE028EBBE
S11307C0FC01218380E09DE028E2FC01228380E09B
S11307D09DE02FE3FC01278380E896E020E2FC0102
S11307E021830000DF91CF910895CF93DF93CDB79C
S11307F0DEB763E083E09DE00E941E0186E094E0A2
S11308000E941A040000DF91CF910895CF93DF93E3
S1130810CDB7DEB78091002090910120A0910220F5
S1130820B0910320BC01CD010E9476030000DF914A
S1130830CF910895CF93DF931F921F92CDB7DEB768
S113084089839A8389819A818093042090930520D7
S113085000000F900F90DF91CF910895CF93DF9315
S11308601F921F92CDB7DEB789839A8389819A81BB
S1130870892B31F480E896E020E2FC01268305C050
S113088080E896E020E2FC01258300000F900F90A1
S1130890DF91CF9108951F920F9200903F000F9225
S11308A0112400903B000F922F933F934F935F933B
S11308B06F937F938F939F93AF93BF93EF93FF9324
S11308C0CF93DF93CDB7DEB78091042090910520BC
S11308D0FC0119950000DF91CF91FF91EF91BF9139
S11308E0AF919F918F917F916F915F914F913F91C4
S11308F02F910F9000923B000F9000923F000F90B9
S11309001F9018950E94B60408F481E008950E948F
S1130910E20488F09F5798F0B92F9927B751B0F0A7
S1130920E1F0660F771F881F991F1AF0BA95C9F76F
S113093014C0B13091F00E94FC04B1E008950C940D
S1130940FC04672F782F8827B85F39F0B93FCCF3C0
S1130950869577956795B395D9F73EF490958095EC
S1130960709561957F4F8F4F9F4F0895990F0008A1
S1130970550FAA0BE0E8FEEF16161706E807F9076D
S1130980C0F012161306E407F50798F0621B730B08
S1130990840B950B39F40A2661F0232B242B252B89
S11309A021F408950A2609F4A140A6958FEF811D2C
S11309B0811D089557FD9058440F551F59F05F3F0E
S11309C071F04795880F97FB991F61F09F3F79F06D
S11309D087950895121613061406551FF2CF4695EF
S11309E0F1DF08C0161617061806991FF1CF869571
S11309F07105610508940895E894BB276627772755
S1130A00CB0197F908950E94B60408F48FEF089576
S1130A100E941B050C948C050E947E0538F00E94F0
S1130A20850520F0952311F00C9475050C947B0535
S1130A3011240C94FD040E94DA0470F3959FC1F311
S1130A40950F50E0551F629FF001729FBB27F00D78
S1130A50B11D639FAA27F00DB11DAA1F649F6627CD
S1130A60B00DA11D661F829F2227B00DA11D621F1C
S1130A70739FB00DA11D621F839FA00D611D221FD6
S1130A80749F3327A00D611D231F849F600D211DBA
S1130A90822F762F6A2F11249F5750409AF0F1F03D
S1130AA088234AF0EE0FFF1FBB1F661F771F881FA6
S1130AB091505040A9F79E3F510580F00C94750564
S1130AC00C94FD045F3FE4F3983ED4F38695779548
S1130AD06795B795F795E7959F5FC1F7FE2B880F4C
S1130AE0911D9695879597F9089597F99F6780E8E2
S1130AF070E060E008959FEF80EC089500240A946C
S1130B001616170618060906089500240A941216E4
S1130B101306140605060895092E0394000C11F417
S1130B20882352F0BB0F40F4BF2B11F460FF04C0C4
S1130B306F5F7F4F8F4F9F4F0895FC0101900020FE
S1130B40E9F7809590958E0F9F1F08952532310502
S1130B5020F4223010F00C94B105FA011082CA017D
S1130B600895BB272A3051F4992342F4BDE29095AD
S1130B708095709561957F4F8F4F9F4F0C94C10561
S1130B80BB27FA01A62F6217710581059105330B66
S1130B9030FB66F0AA27660F771F881F991FAA1FCC
S1130BA0A21710F0A21B63953850A9F7A05DAA33D1
S1130BB008F0A95DA19336F7B111B1931082CA016F
S1130BC00C94E205DC01FC01672F71917723E1F7B6
S1130BD0329704C07C916D9370836291AE17BF0706
S10B0BE0C8F30895F894FFCF57
S1070BE80500000000
S9030000FC
