S00C00004C6162312E73726563D8
S11300000C94A2000C94AE000C94AE000C94AE00C0
S11300100C94AE000C94AE000C94AE000C94AE00A4
S11300200C94AE000C94AE000C94AE000C94AE0094
S11300300C94AE000C94AE000C94AE000C94AE0084
S11300400C94AE000C94AE000C94AE000C94AE0074
S11300500C94AE000C94AE000C94AE000C94AE0064
S11300600C94AE000C94AE000C94AE000C94AE0054
S11300700C94AE000C94AE000C94AE000C94AE0044
S11300800C94AE000C94AE000C94AE000C94AE0034
S11300900C94AE000C94AE000C94AE000C94AE0024
S11300A00C94AE000C94AE000C94AE000C94AE0014
S11300B00C94AE000C94AE000C94AE000C94AE0004
S11300C00C94AE000C94AE000C94AE000C94AE00F4
S11300D00C94AE000C94AE000C94AE000C94AE00E4
S11300E00C94AE000C94AE000C94AE000C94AE00D4
S11300F00C94AE000C94AE000C94AE000C94AE00C4
S11301000C94AE000C94AE000C94AE000C94AE00B3
S11301100C94AE000C94AE000C94AE000C94AE00A3
S11301200C94AE000C94AE000C94AE000C94AE0093
S11301300C94AE000C94AE000C94AE000C94AE0083
S11301400C94AE0011241FBECFEFCDBFDFE3DEBFA2
S113015000E00CBF0E94F6020C9420040C940000F2
S1130160CF93DF9300D0CDB7DEB789839A836B83B7
S113017089819A812B81FC01218300002396CDBFC4
S1130180DEBFDF91CF910895CF93DF9300D0CDB739
S1130190DEB789839A836B8389819A812B81FC01E1
S11301A0228300002396CDBFDEBFDF91CF91089557
S11301B0CF93DF9300D01F92CDB7DEB789839A83A4
S11301C06B834C8389819A812C81FC0125839B81DB
S11301D08C81292F282389819A81FC0126830000A0
S11301E02496CDBFDEBFDF91CF910895CF93DF93E7
S11301F01F921F92CDB7DEB789839A8389819A8132
S1130200FC0180850F900F90DF91CF9108950F939B
S1130210CF93DF9300D000D0CDB7DEB78C839D831E
S11302206E838FE390E0FC0180818B83F8948C8152
S11302309D8189839A838BE390E0FC0110828981FC
S11302409A812E81FC0108ED04BF20838FE390E0A6
S11302502B81FC01208300002696CDBFDEBFDF91F9
S1130260CF910F910895CF93DF93CDB7DEB780E59B
S113027090E020E530E0F90120812260FC01208338
S113028080E590E0FC018181882F90E082709927BD
S1130290892BB1F380E490E0FC018081887F816048
S11302A0682F80E490E00E9407010000DF91CF9165
S11302B00895CF93DF931F921F92CDB7DEB78A8341
S11302C08A81882F90E082959295907F9827807FED
S11302D0982789838A8180958295807F40EF682F53
S11302E080E296E00E94D80000000F900F90DF910A
S11302F0CF910895CF93DF93CDB7DEB780E896E032
S11303000E94F6008F70DF91CF910895CF93DF9311
S11303101F92CDB7DEB70E947A0189830E947A01C9
S11303200E9459018981882F90E0809590958F7063
S11303309927089711F00000EECF00000F90DF918D
S1130340CF910895CF93DF93CDB7DEB76F97CDBF2D
S1130350DEBF19821A820E947A018B83898180957B
S11303600E9459018B81882F90E0809590958F7021
S113037099278230910599F0833091051CF40197F7
S113038041F087C08430910509F482C0089769F070
S113039080C089819A81019689839A837AC08981F0
S11303A09A81019789839A8374C080E090E0AAE7D8
S11303B0B4E488879987AA87BB8720E030E04AEFB6
S11303C055E4688579858A859B850E948B03DC01C9
S11303D0CB018C879D87AE87BF8720E030E040E863
S11303E05FE36C857D858E859F850E940503882348
S11303F02CF481E090E0888B998B3FC020E03FEFA4
S11304004FE757E46C857D858E859F850E94860322
S113041018164CF520E030E040E251E46885798517
S11304208A859B850E948B03DC01CB01BC01CD0135
S11304300E940A03DC01CB01888B998B0FC080E2F8
S113044093E08A8B9B8B8A899B890197F1F78A8B2E
S11304509B8B888999890197888B998B888999893D
S1130460892B69F789C06C857D858E859F850E945F
S11304700A03DC01CB01888B998B888999898C8B41
S11304809D8B8C899D890197F1F78C8B9D8B74C012
S1130490000080E090E0AAE7B4E48C839D83AE83FF
S11304A0BF8320E030E04AEF55E46C817D818E818A
S11304B09F810E948B03DC01CB018E8B9F8BA88FC5
S11304C0B98F20E030E040E85FE36E897F89888D52
S11304D0998D0E94050388232CF481E090E08A8F93
S11304E09B8F3FC020E03FEF4FE757E46E897F8941
S11304F0888D998D0E94860318164CF520E030E013
S113050040E251E46C817D818E819F810E948B0346
S1130510DC01CB01BC01CD010E940A03DC01CB014B
S11305208A8F9B8F0FC080E293E08C8F9D8F8C8D80
S11305309D8D0197F1F78C8F9D8F8A8D9B8D0197EF
S11305408A8F9B8F8A8D9B8D892B69F714C06E8946
S11305507F89888D998D0E940A03DC01CB018A8FE3
S11305609B8F8A8D9B8D8E8F9F8F8E8D9F8D0197F4
S1130570F1F78E8F9F8FEFCE6F96CDBFDEBFDF91E9
S1130580CF910895CF93DF93CDB7DEB76FE080E8C6
S113059096E00E94C40080EB90E02FE0FC012083F1
S11305A080E896E020E836E0F90120892861FC0122
S11305B0208B0000DF91CF910895CF93DF93CDB7C7
S11305C0DEB760EF80E296E00E94B0000000DF91A9
S11305D0CF910895CF93DF93CDB7DEB70E94C202C7
S11305E00E94DD020000DF91CF910895CF93DF9345
S11305F0CDB7DEB7000000000E9433010E94EA027A
S11306000E94A2010E948601FFCF0E94390308F4D0
S113061081E008950E94650388F09F5798F0B92FF0
S11306209927B751B0F0E1F0660F771F881F991F23
S11306301AF0BA95C9F714C0B13091F00E947F0343
S1130640B1E008950C947F03672F782F8827B85F53
S113065039F0B93FCCF3869577956795B395D9F77B
S11306603EF490958095709561957F4F8F4F9F4F85
S11306700895990F0008550FAA0BE0E8FEEF16162F
S11306801706E807F907C0F012161306E407F50782
S113069098F0621B730B840B950B39F40A2661F0F6
S11306A0232B242B252B21F408950A2609F4A14099
S11306B0A6958FEF811D811D089557FD9058440F15
S11306C0551F59F05F3F71F04795880F97FB991FAD
S11306D061F09F3F79F0879508951216130614066A
S11306E0551FF2CF4695F1DF08C0161617061806F7
S11306F0991FF1CF86957105610508940895E894D2
S1130700BB2766277727CB0197F908950E94390301
S113071008F48FEF08950E949E030C940F040E9426
S1130720010438F00E94080420F0952311F00C9481
S1130730F8030C94FE0311240C9480030E945D03BF
S113074070F3959FC1F3950F50E0551F629FF00120
S1130750729FBB27F00DB11D639FAA27F00DB11D39
S1130760AA1F649F6627B00DA11D661F829F2227C2
S1130770B00DA11D621F739FB00DA11D621F839F49
S1130780A00D611D221F749F3327A00D611D231F1F
S1130790849F600D211D822F762F6A2F11249F576D
S11307A050409AF0F1F088234AF0EE0FFF1FBB1F70
S11307B0661F771F881F91505040A9F79E3F51052F
S11307C080F00C94F8030C9480035F3FE4F3983EAC
S11307D0D4F3869577956795B795F795E7959F5FD9
S11307E0C1F7FE2B880F911D9695879597F908956B
S11307F097F99F6780E870E060E008959FEF80ECD0
S1130800089500240A941616170618060906089572
S113081000240A9412161306140605060895092ED8
S11308200394000C11F4882352F0BB0F40F4BF2B47
S113083011F460FF04C06F5F7F4F8F4F9F4F089587
S1070840F894FFCF56
S9030000FC
