S00C00004C6162312E73726563D8
S11300000C94A2000C94AE000C94AE000C94AE00C0
S11300100C94AE000C94AE000C94AE000C94AE00A4
S11300200C94AE000C94AE000C94AE000C94AE0094
S11300300C94AE000C94AE000C94AE000C94AE0084
S11300400C94AE000C94AE000C94AE000C94AE0074
S11300500C94AE000C94AE000C94AE000C94AE0064
S11300600C94AE000C94AE000C94AE000C94AE0054
S11300700C94AE000C94AE000C94AE000C94AE0044
S11300800C94AE000C94AE000C94AE000C94AE0034
S11300900C94AE000C94AE000C94AE000C94AE0024
S11300A00C94AE000C94AE000C94AE000C94AE0014
S11300B00C94AE000C94AE000C94AE000C94AE0004
S11300C00C94AE000C94AE000C94AE000C94AE00F4
S11300D00C94AE000C94AE000C94AE000C94AE00E4
S11300E00C94AE000C94AE000C94AE000C94AE00D4
S11300F00C94AE000C94AE000C94AE000C94AE00C4
S11301000C94AE000C94AE000C94AE000C94AE00B3
S11301100C94AE000C94AE000C94AE000C94AE00A3
S11301200C94AE000C94AE000C94AE000C94AE0093
S11301300C94AE000C94AE000C94AE000C94AE0083
S11301400C94AE0011241FBECFEFCDBFDFE3DEBFA2
S113015000E00CBF0E94F0000C94FC000C94000022
S113016082E0809350008091510081FFFCCF88EDA4
S113017084BF81E080934000809150008D7F809304
S11301805000089580958295807FE0E2F6E090EF3C
S1130190958386830895C0E0D0E08C2F0E94C2002E
S11301A02196C031D10514F0C0E0D0E02FEF87EAEA
S11301B091E6215080409040E1F700C00000EDCF6F
S11301C0E0E8F6E08FE082838093B0008089886164
S11301D0808B08950E94E00080EF809321060895AB
S11301E0000000000E94B0000E94EA008AE00E9421
S10F01F0C2000E94CB00FFCFF894FFCFA8
S9030000FC
