S00C00004C6162332E73726563D6
S11300000C94A6000C94BA000C94BA000C94BA0098
S11300100C94BA000C94BA000C94BA000C94BA0074
S11300200C94BA000C94BA000C94BA000C94BA0064
S11300300C94BA000C94BA000C94BA000C94BA0054
S11300400C94BA000C94BA000C94BA000C94BA0044
S11300500C94BA000C94BA000C94BA000C94BA0034
S11300600C94BA000C94BA000C94BA000C94BA0024
S11300700C94BA000C94BA000C94BA000C94BA0014
S11300800C94BA000C94BA000C94BA000C94A40218
S11300900C94BA000C94BA000C94BA000C94BA00F4
S11300A00C94BA000C94BA000C94BA000C94BA00E4
S11300B00C94BA000C94BA000C94BA000C94BA00D4
S11300C00C94BA000C94BA000C94BA000C94BA00C4
S11300D00C94BA000C94BA000C94BA000C94BA00B4
S11300E00C94BA000C94BA000C94BA000C94BA00A4
S11300F00C94BA000C94BA000C94BA000C94BA0094
S11301000C94BA000C94BA000C94BA000C94BA0083
S11301100C94BA000C94BA000C94BA000C94BA0073
S11301200C94BA000C94BA000C94BA000C94BA0063
S11301300C94BA000C94BA000C94BA000C94BA0053
S11301400C946B040C9458040C94170411241FBED3
S1130150CFEFCDBFDFE3DEBF00E00CBF20E2A0E0C5
S1130160B0E201C01D92A730B207E1F70E9431034B
S11301700C940E060C940000CF93DF9300D0CDB7FF
S1130180DEB789839A836B8389819A812B81FC01F1
S1130190218300002396CDBFDEBFDF91CF91089568
S11301A0CF93DF9300D0CDB7DEB789839A836B8377
S11301B089819A812B81FC01228300002396CDBF83
S11301C0DEBFDF91CF910895CF93DF9300D01F92CC
S11301D0CDB7DEB789839A836B834C8389819A81F7
S11301E02C81FC0125839B818C81292F28238981E3
S11301F09A81FC01268300002496CDBFDEBFDF91E7
S1130200CF910895CF93DF931F921F92CDB7DEB79E
S113021089839A8389819A81FC0180850F900F904C
S1130220DF91CF9108950F93CF93DF9300D000D047
S1130230CDB7DEB78C839D836E838FE390E0FC01A2
S113024080818B83F8948C819D8189839A838BE34D
S113025090E0FC01108289819A812E81FC0108EDD5
S113026004BF20838FE390E02B81FC0120830000F6
S11302702696CDBFDEBFDF91CF910F910895CF9326
S1130280DF93CDB7DEB780E590E020E530E0F901FB
S113029020812260FC01208380E590E0FC018181C3
S11302A0882F90E082709927892BB1F380E490E045
S11302B0FC018081887F8160682F80E490E00E9447
S11302C0130180E490E021E0FC0123830000DF912E
S11302D0CF910895CF93DF931F921F92CDB7DEB7CE
S11302E08A838A81882F90E082959295907F9827BF
S11302F0807F982789838A8180958295807F40EFCB
S1130300682F80E296E00E94E40000000F900F90B6
S1130310DF91CF910895CF93DF93CDB7DEB780E817
S113032096E00E9402018F70DF91CF910895CF93E0
S1130330DF93CDB7DEB76FE080E896E00E94D0008F
S113034080EB90E02FE0FC01208380E896E020E839
S113035036E0F90120892861FC01208B0000DF913F
S1130360CF910895CF93DF93CDB7DEB760EF80E2EE
S113037096E00E94BC000000DF91CF910895CF93D6
S1130380DF93CDB7DEB70E9497010E94B20100004F
S1130390DF91CF910895CF93DF931F921F92CDB732
S11303A0DEB789836A8389818730A0F480E09DE089
S11303B02981222F30E049E050E0BA01621B730B1F
S11303C09B01220F220F2C732068FC0120878A8155
S11303D00E94F00100000F900F90DF91CF910895DB
S11303E0CF93DF931F92CDB7DEB7898380E09DE082
S11303F02981FC01218700000F90DF91CF9108959E
S1130400CF93DF93CDB7DEB72F97CDBFDEBF6C8719
S11304107D878E879F878C859D85AE85BF85803837
S11304209649A849B1050CF042C00000AE014B5FEB
S11304305F4F8C859D85AE85BF852AE030E0BC0189
S1130440CD010E94C205CE0105960E94B9058B8399
S11304509C8386E090E089839A8325C029813A8130
S11304608B819C81821793072CF4898160E00E9420
S1130470CB0114C02B813C8189819A81A901481B3D
S1130480590BCA0101979E012B5F3F4F820F931FA7
S1130490FC0190818981692F0E94CB0189819A8115
S11304A0019789839A8389819A819923BCF60000F4
S11304B02F96CDBFDEBFDF91CF910895CF93DF9309
S11304C0CDB7DEB780E09DE022E8FC01208380E028
S11304D09DE028EBFC01218380E09DE028E2FC0103
S11304E0228380E09DE02FE3FC01278380E896E0EF
S11304F020E2FC0121830000DF91CF910895CF9386
S1130500DF93CDB7DEB761E083E09DE00E94130185
S113051088E594E00E9490020000DF91CF91089555
S1130520CF93DF931F921F92CDB7DEB789839A834F
S113053089819A81809300209093012000000F907C
S11305400F90DF91CF9108951F920F9200903F007A
S11305500F92112400903B000F922F933F934F93DF
S11305605F936F937F938F939F93AF93BF93EF9317
S1130570FF93CF93DF93CDB7DEB7809100209091A6
S11305800120FC0119950000DF91CF91FF91EF91BB
S1130590BF91AF919F918F917F916F915F914F9197
S11305A03F912F910F9000923B000F9000923F00DB
S11305B00F901F901895CF93DF931F92CDB7DEB79E
S11305C089838981809304208981882F90E08130F8
S11305D0910561F08230910579F0892B09F012C000
S11305E080E092E020E4FC0121A30CC080E092E0D2
S11305F020E5FC0121A306C080E092E028E4FC0190
S113060021A3000000000F90DF91CF910895CF93B4
S1130610DF93CDB7DEB780E092E021E0FC012683D2
S113062080E092E020E032E0F90120812460FC01C6
S113063020830000DF91CF910895CF93DF931F9221
S11306401F92CDB7DEB789839A8389819A8180937B
S113065002209093032000000F900F90DF91CF9120
S11306600895CF93DF93CDB7DEB76097CDBFDEBFDC
S11306700E943F0167E082EA90E00E9413010E9419
S1130680BF010E945E020E947F020E94DA0387E19A
S113069094E00E941D03789419821A8280910420A8
S11306A0882321F48EE00E946A010FC08091042007
S11306B0813021F48DE00E946A0107C080910420FA
S11306C0823019F48BE00E946A010E94070380E0E3
S11306D090E0A8E4B3E48B839C83AD83BE8320E0E5
S11306E030E04AEF55E46B817C818D819E810E94CC
S11306F02405DC01CB018F839887A987BA8720E082
S113070030E040E85FE36F81788589859A850E94AF
S11307109E0488232CF481E090E08B879C873FC063
S113072020E03FEF4FE757E46F81788589859A850C
S11307300E941F0518164CF520E030E040E251E419
S11307406B817C818D819E810E942405DC01CB011B
S1130750BC01CD010E94A304DC01CB018B879C87E3
S11307600FC080E293E08D879E878D859E850197DB
S1130770F1F78D879E878B859C8501978B879C8756
S11307808B859C85892B69F714C06F817885898551
S11307909A850E94A304DC01CB018B879C878B85FF
S11307A09C858F87988B8F8598890197F1F78F8720
S11307B0988B74CFCF93DF93CDB7DEB780E092E010
S11307C020E032E0F90120812160FC01208380E0F7
S11307D092E020E032E0F90121812061FC012183D3
S11307E080E092E020E032E0F90122812061FC0106
S11307F0228380E092E020E032E0F9012481FC01D0
S1130800248380E092E020E032E0F90120A1216815
S1130810FC0120A380E092E020E032E0F90122A173
S11308202360FC0122A30000DF91CF910895CF93B0
S1130830DF931F92CDB7DEB780E092E0FC018089A0
S1130840918980930520909306200E948B018983CF
S11308508981882F90E0809590958F7099278230B8
S1130860910591F0833091051CF4019739F01BC078
S11308708430910581F00897A9F015C010920420E6
S113088080E00E94DB020FC081E08093042081E0BD
S11308900E94DB0208C082E08093042082E00E9470
S11308A0DB0201C0000000000F90DF91CF9108959A
S11308B0CF93DF93CDB7DEB78091052090910620CA
S11308C0CC01A0E0B0E0BC01CD010E940002000018
S11308D0DF91CF9108951F920F9200903F000F92E5
S11308E0112400903B000F922F933F934F935F93FB
S11308F06F937F938F939F93AF93BF93EF93FF93E4
S1130900CF93DF93CDB7DEB70E9417040000DF91C9
S1130910CF91FF91EF91BF91AF919F918F917F9173
S11309206F915F914F913F912F910F9000923B00F7
S11309300F9000923F000F901F9018950E94D204D0
S113094008F481E008950E94FE0488F09F5798F00F
S1130950B92F9927B751B0F0E1F0660F771F881FC0
S1130960991F1AF0BA95C9F714C0B13091F00E94DA
S11309701805B1E008950C941805672F782F88277F
S1130980B85F39F0B93FCCF3869577956795B39501
S1130990D9F73EF490958095709561957F4F8F4F70
S11309A09F4F0895990F0008550FAA0BE0E8FEEF3A
S11309B016161706E807F907C0F012161306E4071F
S11309C0F50798F0621B730B840B950B39F40A2618
S11309D061F0232B242B252B21F408950A2609F4F6
S11309E0A140A6958FEF811D811D089557FD905854
S11309F0440F551F59F05F3F71F04795880F97FBDF
S1130A00991F61F09F3F79F0879508951216130698
S1130A101406551FF2CF4695F1DF08C016161706C7
S1130A201806991FF1CF86957105610508940895FC
S1130A30E894BB2766277727CB0197F908950E948E
S1130A40D20408F48FEF08950E9437050C94A8058A
S1130A500E949A0538F00E94A10520F0952311F018
S1130A600C9491050C94970511240C9419050E947B
S1130A70F60470F3959FC1F3950F50E0551F629FE4
S1130A80F001729FBB27F00DB11D639FAA27F00DE3
S1130A90B11DAA1F649F6627B00DA11D661F829F0A
S1130AA02227B00DA11D621F739FB00DA11D621FEF
S1130AB0839FA00D611D221F749F3327A00D611D0C
S1130AC0231F849F600D211D822F762F6A2F1124EE
S1130AD09F5750409AF0F1F088234AF0EE0FFF1F21
S1130AE0BB1F661F771F881F91505040A9F79E3F78
S1130AF0510580F00C9491050C9419055F3FE4F3C3
S1130B00983ED4F3869577956795B795F795E795CD
S1130B109F5FC1F7FE2B880F911D9695879597F9D6
S1130B20089597F99F6780E870E060E008959FEF6B
S1130B3080EC089500240A94161617061806090670
S1130B40089500240A94121613061406050608953F
S1130B50092E0394000C11F4882352F0BB0F40F4C7
S1130B60BF2B11F460FF04C06F5F7F4F8F4F9F4F07
S1130B700895FC0101900020E9F7809590958E0F6F
S1130B809F1F08952532310520F4223010F00C9473
S1130B90CD05FA011082CA010895BB272A3051F409
S1130BA0992342F4BDE290958095709561957F4FAD
S1130BB08F4F9F4F0C94DD05BB27FA01A62F6217B8
S1130BC0710581059105330B30FB66F0AA27660F8A
S1130BD0771F881F991FAA1FA21710F0A21B6395E5
S1130BE03850A9F7A05DAA3308F0A95DA19336F7A0
S1130BF0B111B1931082CA010C94FE05DC01FC0111
S1130C00672F71917723E1F7329704C07C916D933C
S1130C1070836291AE17BF07C8F30895F894FFCFAD
S9030000FC
